{
  "transactions": [
    {
      "hash": "0xf055dc8f16662daa9b7155e7ba3f6ce294ac61d3ccd007caefb66ecc66e3a218",
      "transactionType": "CALL",
      "contractName": "VaultsRegistry",
      "contractAddress": "0xf16fea93d3253a401c3f73b0de890c6586740b25",
      "function": "addVaultImpl(address)",
      "arguments": [
        "0x03C66cFB4Ed79a120b8279fD51aE3d6710A898f9"
      ],
      "transaction": {
        "from": "0xff2b6d2d5c205b99e2e6f607b6afa3127b9957b6",
        "to": "0xf16fea93d3253a401c3f73b0de890c6586740b25",
        "gas": "0x10f4c",
        "value": "0x0",
        "input": "0xaff7947d00000000000000000000000003c66cfb4ed79a120b8279fd51ae3d6710a898f9",
        "nonce": "0x2e5",
        "chainId": "0x88bb0"
      },
      "additionalContracts": [],
      "isFixedGasLimit": false
    },
    {
      "hash": "0x2c116fa9c07866ca76675530e5542127ea9976483b762aff44cee4b0d4c02751",
      "transactionType": "CALL",
      "contractName": "VaultsRegistry",
      "contractAddress": "0xf16fea93d3253a401c3f73b0de890c6586740b25",
      "function": "addVaultImpl(address)",
      "arguments": [
        "0x00a5C0a42EF2fB9fB991EC44335816BD369b9Af7"
      ],
      "transaction": {
        "from": "0xff2b6d2d5c205b99e2e6f607b6afa3127b9957b6",
        "to": "0xf16fea93d3253a401c3f73b0de890c6586740b25",
        "gas": "0x10029",
        "value": "0x0",
        "input": "0xaff7947d00000000000000000000000000a5c0a42ef2fb9fb991ec44335816bd369b9af7",
        "nonce": "0x2e6",
        "chainId": "0x88bb0"
      },
      "additionalContracts": [],
      "isFixedGasLimit": false
    },
    {
      "hash": "0xef0dee72342fdeba1629f846737f18b96570b1b7724bd1fa50a7272c87e225a2",
      "transactionType": "CALL",
      "contractName": "VaultsRegistry",
      "contractAddress": "0xf16fea93d3253a401c3f73b0de890c6586740b25",
      "function": "addVaultImpl(address)",
      "arguments": [
        "0xe3E7ED210FC56B16A7b5b33eeA090A27C9197CB9"
      ],
      "transaction": {
        "from": "0xff2b6d2d5c205b99e2e6f607b6afa3127b9957b6",
        "to": "0xf16fea93d3253a401c3f73b0de890c6586740b25",
        "gas": "0x10f4c",
        "value": "0x0",
        "input": "0xaff7947d000000000000000000000000e3e7ed210fc56b16a7b5b33eea090a27c9197cb9",
        "nonce": "0x2e7",
        "chainId": "0x88bb0"
      },
      "additionalContracts": [],
      "isFixedGasLimit": false
    },
    {
      "hash": "0xdcb6099f526daa6da36fb46155f4731227a6f12f14225680e026e0c0e3ebf403",
      "transactionType": "CALL",
      "contractName": "VaultsRegistry",
      "contractAddress": "0xf16fea93d3253a401c3f73b0de890c6586740b25",
      "function": "addVaultImpl(address)",
      "arguments": [
        "0xf13E807C41a98727ED2Ca50ca511181276f3F4f3"
      ],
      "transaction": {
        "from": "0xff2b6d2d5c205b99e2e6f607b6afa3127b9957b6",
        "to": "0xf16fea93d3253a401c3f73b0de890c6586740b25",
        "gas": "0x10f4c",
        "value": "0x0",
        "input": "0xaff7947d000000000000000000000000f13e807c41a98727ed2ca50ca511181276f3f4f3",
        "nonce": "0x2e8",
        "chainId": "0x88bb0"
      },
      "additionalContracts": [],
      "isFixedGasLimit": false
    },
    {
      "hash": "0x21b9e1db01ef9d761d7afbdffbb3fa4fd099fb789769212bf3f175646a668684",
      "transactionType": "CALL",
      "contractName": "VaultsRegistry",
      "contractAddress": "0xf16fea93d3253a401c3f73b0de890c6586740b25",
      "function": "addVaultImpl(address)",
      "arguments": [
        "0x33c04108A5bf0940E6Bd30aD3c253F4A194e0D74"
      ],
      "transaction": {
        "from": "0xff2b6d2d5c205b99e2e6f607b6afa3127b9957b6",
        "to": "0xf16fea93d3253a401c3f73b0de890c6586740b25",
        "gas": "0x10f4c",
        "value": "0x0",
        "input": "0xaff7947d00000000000000000000000033c04108a5bf0940e6bd30ad3c253f4a194e0d74",
        "nonce": "0x2e9",
        "chainId": "0x88bb0"
      },
      "additionalContracts": [],
      "isFixedGasLimit": false
    },
    {
      "hash": "0x57f182b8b9741dbb27cd109f8cdc0ae9e2e5dabe3ace07c36293409171870294",
      "transactionType": "CALL",
      "contractName": "VaultsRegistry",
      "contractAddress": "0xf16fea93d3253a401c3f73b0de890c6586740b25",
      "function": "addVaultImpl(address)",
      "arguments": [
        "0x23d8deD492FB5ACAF5b8AC1Fdd24dd71F9D0889D"
      ],
      "transaction": {
        "from": "0xff2b6d2d5c205b99e2e6f607b6afa3127b9957b6",
        "to": "0xf16fea93d3253a401c3f73b0de890c6586740b25",
        "gas": "0x10f4c",
        "value": "0x0",
        "input": "0xaff7947d00000000000000000000000023d8ded492fb5acaf5b8ac1fdd24dd71f9d0889d",
        "nonce": "0x2ea",
        "chainId": "0x88bb0"
      },
      "additionalContracts": [],
      "isFixedGasLimit": false
    },
    {
      "hash": "0xbc69e8d3197e863f9cbae9fd744755ce26274045921d5b0d17c62b77141c32a1",
      "transactionType": "CALL",
      "contractName": "VaultsRegistry",
      "contractAddress": "0xf16fea93d3253a401c3f73b0de890c6586740b25",
      "function": "addVaultImpl(address)",
      "arguments": [
        "0x2d151aF2cCD078ec848e6F9D2a90bb9401027345"
      ],
      "transaction": {
        "from": "0xff2b6d2d5c205b99e2e6f607b6afa3127b9957b6",
        "to": "0xf16fea93d3253a401c3f73b0de890c6586740b25",
        "gas": "0x10f4c",
        "value": "0x0",
        "input": "0xaff7947d0000000000000000000000002d151af2ccd078ec848e6f9d2a90bb9401027345",
        "nonce": "0x2eb",
        "chainId": "0x88bb0"
      },
      "additionalContracts": [],
      "isFixedGasLimit": false
    },
    {
      "hash": "0x943d027f0c808414c001223fa86135d8bf8b97144e4568d6426f44c970a1c15a",
      "transactionType": "CALL",
      "contractName": "VaultsRegistry",
      "contractAddress": "0xf16fea93d3253a401c3f73b0de890c6586740b25",
      "function": "addFactory(address)",
      "arguments": [
        "0x394c22C328127Cc0d410cf035777b74E2120e4CE"
      ],
      "transaction": {
        "from": "0xff2b6d2d5c205b99e2e6f607b6afa3127b9957b6",
        "to": "0xf16fea93d3253a401c3f73b0de890c6586740b25",
        "gas": "0xff4d",
        "value": "0x0",
        "input": "0x29ce1ec5000000000000000000000000394c22c328127cc0d410cf035777b74e2120e4ce",
        "nonce": "0x2ec",
        "chainId": "0x88bb0"
      },
      "additionalContracts": [],
      "isFixedGasLimit": false
    },
    {
      "hash": "0xac2fb505a0200d2323af2a433f24ee7b19b2b3344bd3b3bd26c11c5c2aff4698",
      "transactionType": "CALL",
      "contractName": "VaultsRegistry",
      "contractAddress": "0xf16fea93d3253a401c3f73b0de890c6586740b25",
      "function": "addFactory(address)",
      "arguments": [
        "0x35Ed6a770D772dd40E97AACF7B04268d368Cd603"
      ],
      "transaction": {
        "from": "0xff2b6d2d5c205b99e2e6f607b6afa3127b9957b6",
        "to": "0xf16fea93d3253a401c3f73b0de890c6586740b25",
        "gas": "0xff4d",
        "value": "0x0",
        "input": "0x29ce1ec500000000000000000000000035ed6a770d772dd40e97aacf7b04268d368cd603",
        "nonce": "0x2ed",
        "chainId": "0x88bb0"
      },
      "additionalContracts": [],
      "isFixedGasLimit": false
    },
    {
      "hash": "0xffd45bac2c60cc877488d008b25ad915c05c6df7acc94bf82995db09b61124d4",
      "transactionType": "CALL",
      "contractName": "VaultsRegistry",
      "contractAddress": "0xf16fea93d3253a401c3f73b0de890c6586740b25",
      "function": "addFactory(address)",
      "arguments": [
        "0xb64757ad965a1fa20cc46d9d14dF6aD41d8F2D75"
      ],
      "transaction": {
        "from": "0xff2b6d2d5c205b99e2e6f607b6afa3127b9957b6",
        "to": "0xf16fea93d3253a401c3f73b0de890c6586740b25",
        "gas": "0xff4d",
        "value": "0x0",
        "input": "0x29ce1ec5000000000000000000000000b64757ad965a1fa20cc46d9d14df6ad41d8f2d75",
        "nonce": "0x2ee",
        "chainId": "0x88bb0"
      },
      "additionalContracts": [],
      "isFixedGasLimit": false
    },
    {
      "hash": "0xe830edd82cd0892ff8215d0536d2f4f1965e67170bddab9303c4e21665ae11db",
      "transactionType": "CALL",
      "contractName": "VaultsRegistry",
      "contractAddress": "0xf16fea93d3253a401c3f73b0de890c6586740b25",
      "function": "addFactory(address)",
      "arguments": [
        "0xD65DB6c716019D21b27b29D72cc105b805A9660e"
      ],
      "transaction": {
        "from": "0xff2b6d2d5c205b99e2e6f607b6afa3127b9957b6",
        "to": "0xf16fea93d3253a401c3f73b0de890c6586740b25",
        "gas": "0xff4d",
        "value": "0x0",
        "input": "0x29ce1ec5000000000000000000000000d65db6c716019d21b27b29d72cc105b805a9660e",
        "nonce": "0x2ef",
        "chainId": "0x88bb0"
      },
      "additionalContracts": [],
      "isFixedGasLimit": false
    },
    {
      "hash": "0x7cb01759bb3fc2780fa6286fde265cf50867420049fd0acf1f45ecdb155e9c56",
      "transactionType": "CALL",
      "contractName": "VaultsRegistry",
      "contractAddress": "0xf16fea93d3253a401c3f73b0de890c6586740b25",
      "function": "addFactory(address)",
      "arguments": [
        "0xaD582dB240b6232166A3d27aa08F029a1831074C"
      ],
      "transaction": {
        "from": "0xff2b6d2d5c205b99e2e6f607b6afa3127b9957b6",
        "to": "0xf16fea93d3253a401c3f73b0de890c6586740b25",
        "gas": "0xff4d",
        "value": "0x0",
        "input": "0x29ce1ec5000000000000000000000000ad582db240b6232166a3d27aa08f029a1831074c",
        "nonce": "0x2f0",
        "chainId": "0x88bb0"
      },
      "additionalContracts": [],
      "isFixedGasLimit": false
    },
    {
      "hash": "0x3af76c0499e55416736e64972fcd5576088434893dc7362465a9f8c52b90e79c",
      "transactionType": "CALL",
      "contractName": "VaultsRegistry",
      "contractAddress": "0xf16fea93d3253a401c3f73b0de890c6586740b25",
      "function": "addFactory(address)",
      "arguments": [
        "0x197C9CDc85B555787a4b7CA719aeB2c4197b4059"
      ],
      "transaction": {
        "from": "0xff2b6d2d5c205b99e2e6f607b6afa3127b9957b6",
        "to": "0xf16fea93d3253a401c3f73b0de890c6586740b25",
        "gas": "0xff4d",
        "value": "0x0",
        "input": "0x29ce1ec5000000000000000000000000197c9cdc85b555787a4b7ca719aeb2c4197b4059",
        "nonce": "0x2f1",
        "chainId": "0x88bb0"
      },
      "additionalContracts": [],
      "isFixedGasLimit": false
    }
  ],
  "receipts": [
    {
      "status": "0x1",
      "cumulativeGasUsed": "0x21cdd19",
      "logs": [
        {
          "address": "0xf16fea93d3253a401c3f73b0de890c6586740b25",
          "topics": [
            "0x29d974dc346d2950b8cb7bab58520d858ea957de04277b5f52e7ebf831227e59",
            "0x00000000000000000000000003c66cfb4ed79a120b8279fd51ae3d6710a898f9"
          ],
          "data": "0x",
          "blockHash": "0xc411fd3a0e7850897054054b078fd8e9fdc6f3c6ba1c8df1cdfbd120e06e7a88",
          "blockNumber": "0x2ec5f",
          "blockTimestamp": "0x67fe5dd8",
          "transactionHash": "0xf055dc8f16662daa9b7155e7ba3f6ce294ac61d3ccd007caefb66ecc66e3a218",
          "transactionIndex": "0xf",
          "logIndex": "0x0",
          "removed": false
        }
      ],
      "logsBloom": "0x00000000000000000000000000000000000000000000000000000000000000000000000000000000000000000000000000000000000000000000000000000000000000000000000080000000000000000000000000000000000200000000000010000000000000000000000000000000000000000000000000000000000000000000000000000000000000000000000000000000000000000000000000000000000000800000000008000000000000000000000000000000000000000000000000000000000000000000000000000800000000000000010000000000000000000000000000000000000000000000000000000000000000010000000000010000",
      "type": "0x2",
      "transactionHash": "0xf055dc8f16662daa9b7155e7ba3f6ce294ac61d3ccd007caefb66ecc66e3a218",
      "transactionIndex": "0xf",
      "blockHash": "0xc411fd3a0e7850897054054b078fd8e9fdc6f3c6ba1c8df1cdfbd120e06e7a88",
      "blockNumber": "0x2ec5f",
      "gasUsed": "0xb981",
      "effectiveGasPrice": "0x385b1ba3",
      "from": "0xff2b6d2d5c205b99e2e6f607b6afa3127b9957b6",
      "to": "0xf16fea93d3253a401c3f73b0de890c6586740b25",
      "contractAddress": null
    },
    {
      "status": "0x1",
      "cumulativeGasUsed": "0x21d968e",
      "logs": [
        {
          "address": "0xf16fea93d3253a401c3f73b0de890c6586740b25",
          "topics": [
            "0x29d974dc346d2950b8cb7bab58520d858ea957de04277b5f52e7ebf831227e59",
            "0x00000000000000000000000000a5c0a42ef2fb9fb991ec44335816bd369b9af7"
          ],
          "data": "0x",
          "blockHash": "0xc411fd3a0e7850897054054b078fd8e9fdc6f3c6ba1c8df1cdfbd120e06e7a88",
          "blockNumber": "0x2ec5f",
          "blockTimestamp": "0x67fe5dd8",
          "transactionHash": "0x2c116fa9c07866ca76675530e5542127ea9976483b762aff44cee4b0d4c02751",
          "transactionIndex": "0x10",
          "logIndex": "0x1",
          "removed": false
        }
      ],
      "logsBloom": "0x00000000000000000000000000000000000000000000000000000000000000000000000100000000000000000000000000000000000000000000000000000000000000000000000000000000000000000000000000000000000200000000000000000000000000000000000000000800000000000000000000000000000000000000000000000000200000000000000000000000000000000000000000000000000000800000000008000000000000000000000000000000000000000000000000000000000000000000000000000800000000000000010000000000000000000000000000000000000000000000000000000000000000000000000000010000",
      "type": "0x2",
      "transactionHash": "0x2c116fa9c07866ca76675530e5542127ea9976483b762aff44cee4b0d4c02751",
      "transactionIndex": "0x10",
      "blockHash": "0xc411fd3a0e7850897054054b078fd8e9fdc6f3c6ba1c8df1cdfbd120e06e7a88",
      "blockNumber": "0x2ec5f",
      "gasUsed": "0xb975",
      "effectiveGasPrice": "0x385b1ba3",
      "from": "0xff2b6d2d5c205b99e2e6f607b6afa3127b9957b6",
      "to": "0xf16fea93d3253a401c3f73b0de890c6586740b25",
      "contractAddress": null
    },
    {
      "status": "0x1",
      "cumulativeGasUsed": "0x21e500f",
      "logs": [
        {
          "address": "0xf16fea93d3253a401c3f73b0de890c6586740b25",
          "topics": [
            "0x29d974dc346d2950b8cb7bab58520d858ea957de04277b5f52e7ebf831227e59",
            "0x000000000000000000000000e3e7ed210fc56b16a7b5b33eea090a27c9197cb9"
          ],
          "data": "0x",
          "blockHash": "0xc411fd3a0e7850897054054b078fd8e9fdc6f3c6ba1c8df1cdfbd120e06e7a88",
          "blockNumber": "0x2ec5f",
          "blockTimestamp": "0x67fe5dd8",
          "transactionHash": "0xef0dee72342fdeba1629f846737f18b96570b1b7724bd1fa50a7272c87e225a2",
          "transactionIndex": "0x11",
          "logIndex": "0x2",
          "removed": false
        }
      ],
      "logsBloom": "0x00000000000000000000000000000000000000000000000000000000000000000010000000000000000000000000000002000000000000000000000000000000000000000000000000000000000000000000000000000000000200000000000000000000000000000000000000000000000000000000000000000000000000000000000000000000000000000000000000000000000000000000000040000000000000800000000008000000000000000000000000000000000000000000000000000000000000000000000000000800000000000000010000000000000000000000000000000000000000000000000000000000000000000000000000010000",
      "type": "0x2",
      "transactionHash": "0xef0dee72342fdeba1629f846737f18b96570b1b7724bd1fa50a7272c87e225a2",
      "transactionIndex": "0x11",
      "blockHash": "0xc411fd3a0e7850897054054b078fd8e9fdc6f3c6ba1c8df1cdfbd120e06e7a88",
      "blockNumber": "0x2ec5f",
      "gasUsed": "0xb981",
      "effectiveGasPrice": "0x385b1ba3",
      "from": "0xff2b6d2d5c205b99e2e6f607b6afa3127b9957b6",
      "to": "0xf16fea93d3253a401c3f73b0de890c6586740b25",
      "contractAddress": null
    },
    {
      "status": "0x1",
      "cumulativeGasUsed": "0x21f0990",
      "logs": [
        {
          "address": "0xf16fea93d3253a401c3f73b0de890c6586740b25",
          "topics": [
            "0x29d974dc346d2950b8cb7bab58520d858ea957de04277b5f52e7ebf831227e59",
            "0x000000000000000000000000f13e807c41a98727ed2ca50ca511181276f3f4f3"
          ],
          "data": "0x",
          "blockHash": "0xc411fd3a0e7850897054054b078fd8e9fdc6f3c6ba1c8df1cdfbd120e06e7a88",
          "blockNumber": "0x2ec5f",
          "blockTimestamp": "0x67fe5dd8",
          "transactionHash": "0xdcb6099f526daa6da36fb46155f4731227a6f12f14225680e026e0c0e3ebf403",
          "transactionIndex": "0x12",
          "logIndex": "0x3",
          "removed": false
        }
      ],
      "logsBloom": "0x00000000000000000000000000000000000000000000000000000000000000000000000000000000000000000000000000000000000000000000000000000000000000000000000000000000040000000000000000000000000200000000000000000000000000004000000000000000000000000000000000000000000000000000000000000000000000000000000000000000000000000000000000000000000000800000000008000000000000000000000000000000000000000000000000000000000000000000000000000800000000000000010000000000000000000000000000000000000000100000000000000000000000000000000000010000",
      "type": "0x2",
      "transactionHash": "0xdcb6099f526daa6da36fb46155f4731227a6f12f14225680e026e0c0e3ebf403",
      "transactionIndex": "0x12",
      "blockHash": "0xc411fd3a0e7850897054054b078fd8e9fdc6f3c6ba1c8df1cdfbd120e06e7a88",
      "blockNumber": "0x2ec5f",
      "gasUsed": "0xb981",
      "effectiveGasPrice": "0x385b1ba3",
      "from": "0xff2b6d2d5c205b99e2e6f607b6afa3127b9957b6",
      "to": "0xf16fea93d3253a401c3f73b0de890c6586740b25",
      "contractAddress": null
    },
    {
      "status": "0x1",
      "cumulativeGasUsed": "0x21fc311",
      "logs": [
        {
          "address": "0xf16fea93d3253a401c3f73b0de890c6586740b25",
          "topics": [
            "0x29d974dc346d2950b8cb7bab58520d858ea957de04277b5f52e7ebf831227e59",
            "0x00000000000000000000000033c04108a5bf0940e6bd30ad3c253f4a194e0d74"
          ],
          "data": "0x",
          "blockHash": "0xc411fd3a0e7850897054054b078fd8e9fdc6f3c6ba1c8df1cdfbd120e06e7a88",
          "blockNumber": "0x2ec5f",
          "blockTimestamp": "0x67fe5dd8",
          "transactionHash": "0x21b9e1db01ef9d761d7afbdffbb3fa4fd099fb789769212bf3f175646a668684",
          "transactionIndex": "0x13",
          "logIndex": "0x4",
          "removed": false
        }
      ],
      "logsBloom": "0x00000000000000000000000000000000000000000000000000000000000000000000000000000000000000000000000008000000000000000000000000000000000000000000000000000000000000000000000000000000000200000000000100000002000000000000000000000000000000000000000000000000000000000000000000000000000000000000000000000000000000000000000000000000000000800000000008000000000000000000000000000000000000000000000000000000000000000000000000000800000000000000010000000000000000000000000000000000000000000000000000000000000000000000000000010000",
      "type": "0x2",
      "transactionHash": "0x21b9e1db01ef9d761d7afbdffbb3fa4fd099fb789769212bf3f175646a668684",
      "transactionIndex": "0x13",
      "blockHash": "0xc411fd3a0e7850897054054b078fd8e9fdc6f3c6ba1c8df1cdfbd120e06e7a88",
      "blockNumber": "0x2ec5f",
      "gasUsed": "0xb981",
      "effectiveGasPrice": "0x385b1ba3",
      "from": "0xff2b6d2d5c205b99e2e6f607b6afa3127b9957b6",
      "to": "0xf16fea93d3253a401c3f73b0de890c6586740b25",
      "contractAddress": null
    },
    {
      "status": "0x1",
      "cumulativeGasUsed": "0x2207c92",
      "logs": [
        {
          "address": "0xf16fea93d3253a401c3f73b0de890c6586740b25",
          "topics": [
            "0x29d974dc346d2950b8cb7bab58520d858ea957de04277b5f52e7ebf831227e59",
            "0x00000000000000000000000023d8ded492fb5acaf5b8ac1fdd24dd71f9d0889d"
          ],
          "data": "0x",
          "blockHash": "0xc411fd3a0e7850897054054b078fd8e9fdc6f3c6ba1c8df1cdfbd120e06e7a88",
          "blockNumber": "0x2ec5f",
          "blockTimestamp": "0x67fe5dd8",
          "transactionHash": "0x57f182b8b9741dbb27cd109f8cdc0ae9e2e5dabe3ace07c36293409171870294",
          "transactionIndex": "0x14",
          "logIndex": "0x5",
          "removed": false
        }
      ],
      "logsBloom": "0x00000000000000000000000000000000001000000000000002000000000000000000000000000000000000000000000000080000000000000000000000000000000000000000000000000000000000000000000000000000000200000000000000000000000000000000000000000000000000000000000000000000000000000000000000000000000000000000000000000000000000000000000000000000000000800000000008000000000000000000000000000000000000000000000000000000000000000000000000000800000000000000010000000000000000000000000000000000000000000000000000000000000000000000000000010000",
      "type": "0x2",
      "transactionHash": "0x57f182b8b9741dbb27cd109f8cdc0ae9e2e5dabe3ace07c36293409171870294",
      "transactionIndex": "0x14",
      "blockHash": "0xc411fd3a0e7850897054054b078fd8e9fdc6f3c6ba1c8df1cdfbd120e06e7a88",
      "blockNumber": "0x2ec5f",
      "gasUsed": "0xb981",
      "effectiveGasPrice": "0x385b1ba3",
      "from": "0xff2b6d2d5c205b99e2e6f607b6afa3127b9957b6",
      "to": "0xf16fea93d3253a401c3f73b0de890c6586740b25",
      "contractAddress": null
    },
    {
      "status": "0x1",
      "cumulativeGasUsed": "0x2213613",
      "logs": [
        {
          "address": "0xf16fea93d3253a401c3f73b0de890c6586740b25",
          "topics": [
            "0x29d974dc346d2950b8cb7bab58520d858ea957de04277b5f52e7ebf831227e59",
            "0x0000000000000000000000002d151af2ccd078ec848e6f9d2a90bb9401027345"
          ],
          "data": "0x",
          "blockHash": "0xc411fd3a0e7850897054054b078fd8e9fdc6f3c6ba1c8df1cdfbd120e06e7a88",
          "blockNumber": "0x2ec5f",
          "blockTimestamp": "0x67fe5dd8",
          "transactionHash": "0xbc69e8d3197e863f9cbae9fd744755ce26274045921d5b0d17c62b77141c32a1",
          "transactionIndex": "0x15",
          "logIndex": "0x6",
          "removed": false
        }
      ],
      "logsBloom": "0x00000000000000000000000000000000000000000000000000000000000000000000000000000000000000000000000000000800000000000000000000000000000000000000000000000000000000000000000000000000000200000000000000000000000000000000000000000000000000000000000000000000000000000000000000000000000000000000000000000000000000000000000000000000000000800000200008000000000000000000000000000000000000000000000000000000100000000000000000000800000000000000010000000000000000000000000000000000000000000000000000000000000000000000000000010000",
      "type": "0x2",
      "transactionHash": "0xbc69e8d3197e863f9cbae9fd744755ce26274045921d5b0d17c62b77141c32a1",
      "transactionIndex": "0x15",
      "blockHash": "0xc411fd3a0e7850897054054b078fd8e9fdc6f3c6ba1c8df1cdfbd120e06e7a88",
      "blockNumber": "0x2ec5f",
      "gasUsed": "0xb981",
      "effectiveGasPrice": "0x385b1ba3",
      "from": "0xff2b6d2d5c205b99e2e6f607b6afa3127b9957b6",
      "to": "0xf16fea93d3253a401c3f73b0de890c6586740b25",
      "contractAddress": null
    },
    {
      "status": "0x1",
      "cumulativeGasUsed": "0x221eee9",
      "logs": [
        {
          "address": "0xf16fea93d3253a401c3f73b0de890c6586740b25",
          "topics": [
            "0x6fdc0147105e43e21da80a75b42d0fd464060d5e1a34b0cefbf0b4ccfc2e36a1",
            "0x000000000000000000000000394c22c328127cc0d410cf035777b74e2120e4ce"
          ],
          "data": "0x",
          "blockHash": "0xc411fd3a0e7850897054054b078fd8e9fdc6f3c6ba1c8df1cdfbd120e06e7a88",
          "blockNumber": "0x2ec5f",
          "blockTimestamp": "0x67fe5dd8",
          "transactionHash": "0x943d027f0c808414c001223fa86135d8bf8b97144e4568d6426f44c970a1c15a",
          "transactionIndex": "0x16",
          "logIndex": "0x7",
          "removed": false
        }
      ],
      "logsBloom": "0x00000000000000100000000000000000000000000000000000000000000000000000000000000000000000000000000000200000000000000000000000000000000000000000000000000000000000000000000000000000000000000000000000000000000000000000000000000000000000000000000000000000000000000000000000000000000000000002000000000000000000000000000000000000000000800000000000000000000000000000400000000000000000000000000000000000000000000000000000000800000000000000000000000000000040000000000000000000000000000000000000000000000080000000000000010000",
      "type": "0x2",
      "transactionHash": "0x943d027f0c808414c001223fa86135d8bf8b97144e4568d6426f44c970a1c15a",
      "transactionIndex": "0x16",
      "blockHash": "0xc411fd3a0e7850897054054b078fd8e9fdc6f3c6ba1c8df1cdfbd120e06e7a88",
      "blockNumber": "0x2ec5f",
      "gasUsed": "0xb8d6",
      "effectiveGasPrice": "0x385b1ba3",
      "from": "0xff2b6d2d5c205b99e2e6f607b6afa3127b9957b6",
      "to": "0xf16fea93d3253a401c3f73b0de890c6586740b25",
      "contractAddress": null
    },
    {
      "status": "0x1",
      "cumulativeGasUsed": "0x222a7bf",
      "logs": [
        {
          "address": "0xf16fea93d3253a401c3f73b0de890c6586740b25",
          "topics": [
            "0x6fdc0147105e43e21da80a75b42d0fd464060d5e1a34b0cefbf0b4ccfc2e36a1",
            "0x00000000000000000000000035ed6a770d772dd40e97aacf7b04268d368cd603"
          ],
          "data": "0x",
          "blockHash": "0xc411fd3a0e7850897054054b078fd8e9fdc6f3c6ba1c8df1cdfbd120e06e7a88",
          "blockNumber": "0x2ec5f",
          "blockTimestamp": "0x67fe5dd8",
          "transactionHash": "0xac2fb505a0200d2323af2a433f24ee7b19b2b3344bd3b3bd26c11c5c2aff4698",
          "transactionIndex": "0x17",
          "logIndex": "0x8",
          "removed": false
        }
      ],
      "logsBloom": "0x00000000000000000000010000000000000000000000000000000000000000000000000000000000000000000000000000200000000000000000000000000000000000000000000000000000000000000000000000000000000000000000000000000000000000000000000000000000000000000000000000000000000000000000000000000000000000080000000000000000000000000000000000000000000000800000000000000000000000000000400000000000000000000000000000000000000000000000000000000800000000000000000000000000000040000000000000000000000000000000000000004000000000000000000000010000",
      "type": "0x2",
      "transactionHash": "0xac2fb505a0200d2323af2a433f24ee7b19b2b3344bd3b3bd26c11c5c2aff4698",
      "transactionIndex": "0x17",
      "blockHash": "0xc411fd3a0e7850897054054b078fd8e9fdc6f3c6ba1c8df1cdfbd120e06e7a88",
      "blockNumber": "0x2ec5f",
      "gasUsed": "0xb8d6",
      "effectiveGasPrice": "0x385b1ba3",
      "from": "0xff2b6d2d5c205b99e2e6f607b6afa3127b9957b6",
      "to": "0xf16fea93d3253a401c3f73b0de890c6586740b25",
      "contractAddress": null
    },
    {
      "status": "0x1",
      "cumulativeGasUsed": "0x2236095",
      "logs": [
        {
          "address": "0xf16fea93d3253a401c3f73b0de890c6586740b25",
          "topics": [
            "0x6fdc0147105e43e21da80a75b42d0fd464060d5e1a34b0cefbf0b4ccfc2e36a1",
            "0x000000000000000000000000b64757ad965a1fa20cc46d9d14df6ad41d8f2d75"
          ],
          "data": "0x",
          "blockHash": "0xc411fd3a0e7850897054054b078fd8e9fdc6f3c6ba1c8df1cdfbd120e06e7a88",
          "blockNumber": "0x2ec5f",
          "blockTimestamp": "0x67fe5dd8",
          "transactionHash": "0xffd45bac2c60cc877488d008b25ad915c05c6df7acc94bf82995db09b61124d4",
          "transactionIndex": "0x18",
          "logIndex": "0x9",
          "removed": false
        }
      ],
      "logsBloom": "0x00000800000000000000000000000000000000000000000000000000000000000000000000000000000000000000000000200000000000000000000000000000000000000000000000000000000000000000000000800000000000000000000000000000000000000000000000000000000000000000000000000000000000000000000000000000000000000000000000000000000000000000000000000000000000800000000000000000000000000000400000000000000000000000000000000000000000000000000000000800000000000000000001000000000040000000000000000000000000000000000000000000000000000000000000010000",
      "type": "0x2",
      "transactionHash": "0xffd45bac2c60cc877488d008b25ad915c05c6df7acc94bf82995db09b61124d4",
      "transactionIndex": "0x18",
      "blockHash": "0xc411fd3a0e7850897054054b078fd8e9fdc6f3c6ba1c8df1cdfbd120e06e7a88",
      "blockNumber": "0x2ec5f",
      "gasUsed": "0xb8d6",
      "effectiveGasPrice": "0x385b1ba3",
      "from": "0xff2b6d2d5c205b99e2e6f607b6afa3127b9957b6",
      "to": "0xf16fea93d3253a401c3f73b0de890c6586740b25",
      "contractAddress": null
    },
    {
      "status": "0x1",
      "cumulativeGasUsed": "0x224196b",
      "logs": [
        {
          "address": "0xf16fea93d3253a401c3f73b0de890c6586740b25",
          "topics": [
            "0x6fdc0147105e43e21da80a75b42d0fd464060d5e1a34b0cefbf0b4ccfc2e36a1",
            "0x000000000000000000000000d65db6c716019d21b27b29d72cc105b805a9660e"
          ],
          "data": "0x",
          "blockHash": "0xc411fd3a0e7850897054054b078fd8e9fdc6f3c6ba1c8df1cdfbd120e06e7a88",
          "blockNumber": "0x2ec5f",
          "blockTimestamp": "0x67fe5dd8",
          "transactionHash": "0xe830edd82cd0892ff8215d0536d2f4f1965e67170bddab9303c4e21665ae11db",
          "transactionIndex": "0x19",
          "logIndex": "0xa",
          "removed": false
        }
      ],
      "logsBloom": "0x00000000000000000000000000000000010000000000000000000000000000000000000000000000000000000000000000200000000000000000000000000000000000000000000000000000000000000000000000000000000000000000000000000000000000000000000000000000000000000000000000000000000000000000000000000000000000000000000000000000000000000000000000000000000000800000000000000000000000000000400000000000000000000000000000000000000000100000000000000800000000000000000000000000000040000000000000000000000008000000000000000000000000000000000000010000",
      "type": "0x2",
      "transactionHash": "0xe830edd82cd0892ff8215d0536d2f4f1965e67170bddab9303c4e21665ae11db",
      "transactionIndex": "0x19",
      "blockHash": "0xc411fd3a0e7850897054054b078fd8e9fdc6f3c6ba1c8df1cdfbd120e06e7a88",
      "blockNumber": "0x2ec5f",
      "gasUsed": "0xb8d6",
      "effectiveGasPrice": "0x385b1ba3",
      "from": "0xff2b6d2d5c205b99e2e6f607b6afa3127b9957b6",
      "to": "0xf16fea93d3253a401c3f73b0de890c6586740b25",
      "contractAddress": null
    },
    {
      "status": "0x1",
      "cumulativeGasUsed": "0xb8d6",
      "logs": [
        {
          "address": "0xf16fea93d3253a401c3f73b0de890c6586740b25",
          "topics": [
            "0x6fdc0147105e43e21da80a75b42d0fd464060d5e1a34b0cefbf0b4ccfc2e36a1",
            "0x000000000000000000000000ad582db240b6232166a3d27aa08f029a1831074c"
          ],
          "data": "0x",
          "blockHash": "0xaa13c39abc1851392fbde9ab4637417c59c9574cafe5c24ba904436db8dc142c",
          "blockNumber": "0x2ec60",
          "blockTimestamp": "0x67fe5de4",
          "transactionHash": "0x7cb01759bb3fc2780fa6286fde265cf50867420049fd0acf1f45ecdb155e9c56",
          "transactionIndex": "0x0",
          "logIndex": "0x0",
          "removed": false
        }
      ],
      "logsBloom": "0x00000000000000000000000000000000000000000000000000000000400000000000000000000000000000000000000000200000000000000000000000000000000000000000000000000000000000000000000000000000000000000000000000000000000000000000000000000000000000000400000000000000000000000000000000000000000000000000000000000000000000000000000000000000000000800000000000000000000000000000400000000000000000000000000000000000000000000000000000000800004000000000000000000000000040000000000000000000000000000000000000000000000000000000000000010000",
      "type": "0x2",
      "transactionHash": "0x7cb01759bb3fc2780fa6286fde265cf50867420049fd0acf1f45ecdb155e9c56",
      "transactionIndex": "0x0",
      "blockHash": "0xaa13c39abc1851392fbde9ab4637417c59c9574cafe5c24ba904436db8dc142c",
      "blockNumber": "0x2ec60",
      "gasUsed": "0xb8d6",
      "effectiveGasPrice": "0x3ede2438",
      "from": "0xff2b6d2d5c205b99e2e6f607b6afa3127b9957b6",
      "to": "0xf16fea93d3253a401c3f73b0de890c6586740b25",
      "contractAddress": null
    },
    {
      "status": "0x1",
      "cumulativeGasUsed": "0x171ac",
      "logs": [
        {
          "address": "0xf16fea93d3253a401c3f73b0de890c6586740b25",
          "topics": [
            "0x6fdc0147105e43e21da80a75b42d0fd464060d5e1a34b0cefbf0b4ccfc2e36a1",
            "0x000000000000000000000000197c9cdc85b555787a4b7ca719aeb2c4197b4059"
          ],
          "data": "0x",
          "blockHash": "0xaa13c39abc1851392fbde9ab4637417c59c9574cafe5c24ba904436db8dc142c",
          "blockNumber": "0x2ec60",
          "blockTimestamp": "0x67fe5de4",
          "transactionHash": "0x3af76c0499e55416736e64972fcd5576088434893dc7362465a9f8c52b90e79c",
          "transactionIndex": "0x1",
          "logIndex": "0x1",
          "removed": false
        }
      ],
      "logsBloom": "0x00000000000000000000000000000000000000000000000000000000000000000000000000000000000000000000000000200080000000000000000000000000000000000000000000000000000000000000000000000000000000000000000000000000000000000000000000000000000000000000000000000000000000000000000000000000000000000000000000000000000000000000000000000000000000800000000000000000000000000000400010000000000000000000000000000000000000000000000000000800000000000000000000000000000040000000000000000000000000000000000000000000000001000000000000010000",
      "type": "0x2",
      "transactionHash": "0x3af76c0499e55416736e64972fcd5576088434893dc7362465a9f8c52b90e79c",
      "transactionIndex": "0x1",
      "blockHash": "0xaa13c39abc1851392fbde9ab4637417c59c9574cafe5c24ba904436db8dc142c",
      "blockNumber": "0x2ec60",
      "gasUsed": "0xb8d6",
      "effectiveGasPrice": "0x3ede2438",
      "from": "0xff2b6d2d5c205b99e2e6f607b6afa3127b9957b6",
      "to": "0xf16fea93d3253a401c3f73b0de890c6586740b25",
      "contractAddress": null
    }
  ],
  "libraries": [],
  "pending": [],
  "returns": {},
  "timestamp": 1744723430,
  "chain": 560048,
  "commit": "ef3079d"
}