{
  "transactions": [
    {
      "hash": "0xd94e4e022ab02b5d86d27ee350321e545d832c126221411b8796ba6bd566ff65",
      "transactionType": "CALL",
      "contractName": "VaultsRegistry",
      "contractAddress": "0x8750594b33516232e751c8b9c350a660cd5f1bb8",
      "function": "addVaultImpl(address)",
      "arguments": [
        "0x4858e78c3e94fc56376813bE2c2e8625B037024e"
      ],
      "transaction": {
        "from": "0xff2b6d2d5c205b99e2e6f607b6afa3127b9957b6",
        "to": "0x8750594b33516232e751c8b9c350a660cd5f1bb8",
        "gas": "0x10f4c",
        "value": "0x0",
        "input": "0xaff7947d0000000000000000000000004858e78c3e94fc56376813be2c2e8625b037024e",
        "nonce": "0x2a2",
        "chainId": "0x27d8"
      },
      "additionalContracts": [],
      "isFixedGasLimit": false
    },
    {
      "hash": "0x1f03a965769b5e24b117c96c21fe8975af8aaeab079f187819fa8211b2074e54",
      "transactionType": "CALL",
      "contractName": "VaultsRegistry",
      "contractAddress": "0x8750594b33516232e751c8b9c350a660cd5f1bb8",
      "function": "addVaultImpl(address)",
      "arguments": [
        "0xB441475C0995406602e6e71Af4a7718741A73404"
      ],
      "transaction": {
        "from": "0xff2b6d2d5c205b99e2e6f607b6afa3127b9957b6",
        "to": "0x8750594b33516232e751c8b9c350a660cd5f1bb8",
        "gas": "0x10f4c",
        "value": "0x0",
        "input": "0xaff7947d000000000000000000000000b441475c0995406602e6e71af4a7718741a73404",
        "nonce": "0x2a3",
        "chainId": "0x27d8"
      },
      "additionalContracts": [],
      "isFixedGasLimit": false
    },
    {
      "hash": "0xa5589fae3cd3ef88d4d670f201eeb752b5539b0f7632abb74a454b824d920683",
      "transactionType": "CALL",
      "contractName": "VaultsRegistry",
      "contractAddress": "0x8750594b33516232e751c8b9c350a660cd5f1bb8",
      "function": "addVaultImpl(address)",
      "arguments": [
        "0x2FA59Fc852b2f5eF58cD1FF2189F7f193cc420f9"
      ],
      "transaction": {
        "from": "0xff2b6d2d5c205b99e2e6f607b6afa3127b9957b6",
        "to": "0x8750594b33516232e751c8b9c350a660cd5f1bb8",
        "gas": "0x10f4c",
        "value": "0x0",
        "input": "0xaff7947d0000000000000000000000002fa59fc852b2f5ef58cd1ff2189f7f193cc420f9",
        "nonce": "0x2a4",
        "chainId": "0x27d8"
      },
      "additionalContracts": [],
      "isFixedGasLimit": false
    },
    {
      "hash": "0x2ee848e7adc8b5a04350b4500f886c2f00cfd64a75ebc6e42d7e4a3a683d1342",
      "transactionType": "CALL",
      "contractName": "VaultsRegistry",
      "contractAddress": "0x8750594b33516232e751c8b9c350a660cd5f1bb8",
      "function": "addVaultImpl(address)",
      "arguments": [
        "0x591758b8A07f6E37695054c6E278A3B949312e81"
      ],
      "transaction": {
        "from": "0xff2b6d2d5c205b99e2e6f607b6afa3127b9957b6",
        "to": "0x8750594b33516232e751c8b9c350a660cd5f1bb8",
        "gas": "0x10f4c",
        "value": "0x0",
        "input": "0xaff7947d000000000000000000000000591758b8a07f6e37695054c6e278a3b949312e81",
        "nonce": "0x2a5",
        "chainId": "0x27d8"
      },
      "additionalContracts": [],
      "isFixedGasLimit": false
    },
    {
      "hash": "0xae41afca9929b41601ba5813a6f7f213d1215f8c8f6eef177938dc29b091b594",
      "transactionType": "CALL",
      "contractName": "VaultsRegistry",
      "contractAddress": "0x8750594b33516232e751c8b9c350a660cd5f1bb8",
      "function": "addVaultImpl(address)",
      "arguments": [
        "0x99a70eF82c75710a03a9c9f051D6e65d42F1Bc0F"
      ],
      "transaction": {
        "from": "0xff2b6d2d5c205b99e2e6f607b6afa3127b9957b6",
        "to": "0x8750594b33516232e751c8b9c350a660cd5f1bb8",
        "gas": "0x10f4c",
        "value": "0x0",
        "input": "0xaff7947d00000000000000000000000099a70ef82c75710a03a9c9f051d6e65d42f1bc0f",
        "nonce": "0x2a6",
        "chainId": "0x27d8"
      },
      "additionalContracts": [],
      "isFixedGasLimit": false
    },
    {
      "hash": "0xf15878c4f36717fade167ce77d917987d68cd01f8b4a0599d6676d175acb6530",
      "transactionType": "CALL",
      "contractName": "VaultsRegistry",
      "contractAddress": "0x8750594b33516232e751c8b9c350a660cd5f1bb8",
      "function": "addVaultImpl(address)",
      "arguments": [
        "0x5E5C8853EBCc0020F4A577f1670A658B8694E04A"
      ],
      "transaction": {
        "from": "0xff2b6d2d5c205b99e2e6f607b6afa3127b9957b6",
        "to": "0x8750594b33516232e751c8b9c350a660cd5f1bb8",
        "gas": "0x10029",
        "value": "0x0",
        "input": "0xaff7947d0000000000000000000000005e5c8853ebcc0020f4a577f1670a658b8694e04a",
        "nonce": "0x2a7",
        "chainId": "0x27d8"
      },
      "additionalContracts": [],
      "isFixedGasLimit": false
    },
    {
      "hash": "0x89b5ec79ca03492413202daed694d94818ab0e302aa4d4b2dc0c6d2babdd55ab",
      "transactionType": "CALL",
      "contractName": "VaultsRegistry",
      "contractAddress": "0x8750594b33516232e751c8b9c350a660cd5f1bb8",
      "function": "addVaultImpl(address)",
      "arguments": [
        "0xBa4943D68bAE3a39A1281fc1C53311ce12200188"
      ],
      "transaction": {
        "from": "0xff2b6d2d5c205b99e2e6f607b6afa3127b9957b6",
        "to": "0x8750594b33516232e751c8b9c350a660cd5f1bb8",
        "gas": "0x10f4c",
        "value": "0x0",
        "input": "0xaff7947d000000000000000000000000ba4943d68bae3a39a1281fc1c53311ce12200188",
        "nonce": "0x2a8",
        "chainId": "0x27d8"
      },
      "additionalContracts": [],
      "isFixedGasLimit": false
    },
    {
      "hash": "0x600dc23de112522aa50289cfcf25d2486a8b9785262928894764b56fc41beb04",
      "transactionType": "CALL",
      "contractName": "VaultsRegistry",
      "contractAddress": "0x8750594b33516232e751c8b9c350a660cd5f1bb8",
      "function": "addFactory(address)",
      "arguments": [
        "0xd8aadC6b931b10c993a39bBb17C6beB469B3B1F7"
      ],
      "transaction": {
        "from": "0xff2b6d2d5c205b99e2e6f607b6afa3127b9957b6",
        "to": "0x8750594b33516232e751c8b9c350a660cd5f1bb8",
        "gas": "0xff4d",
        "value": "0x0",
        "input": "0x29ce1ec5000000000000000000000000d8aadc6b931b10c993a39bbb17c6beb469b3b1f7",
        "nonce": "0x2a9",
        "chainId": "0x27d8"
      },
      "additionalContracts": [],
      "isFixedGasLimit": false
    },
    {
      "hash": "0xb17b9a00043911897b1ab9ee4ce8c4c5073cbfe396e739838dcf4587e2063318",
      "transactionType": "CALL",
      "contractName": "VaultsRegistry",
      "contractAddress": "0x8750594b33516232e751c8b9c350a660cd5f1bb8",
      "function": "addFactory(address)",
      "arguments": [
        "0xf863D3B4fa9D0F10E22a054f288e08fE03cd6bb6"
      ],
      "transaction": {
        "from": "0xff2b6d2d5c205b99e2e6f607b6afa3127b9957b6",
        "to": "0x8750594b33516232e751c8b9c350a660cd5f1bb8",
        "gas": "0xff4d",
        "value": "0x0",
        "input": "0x29ce1ec5000000000000000000000000f863d3b4fa9d0f10e22a054f288e08fe03cd6bb6",
        "nonce": "0x2aa",
        "chainId": "0x27d8"
      },
      "additionalContracts": [],
      "isFixedGasLimit": false
    },
    {
      "hash": "0xe40b702912c69d186330d3f81af8efdb847fae74220b8e42a704bb7a5ad22bcf",
      "transactionType": "CALL",
      "contractName": "VaultsRegistry",
      "contractAddress": "0x8750594b33516232e751c8b9c350a660cd5f1bb8",
      "function": "addFactory(address)",
      "arguments": [
        "0x477BA8B9Ed539280f38b459C9Ce3a83cC754cEC8"
      ],
      "transaction": {
        "from": "0xff2b6d2d5c205b99e2e6f607b6afa3127b9957b6",
        "to": "0x8750594b33516232e751c8b9c350a660cd5f1bb8",
        "gas": "0xff4d",
        "value": "0x0",
        "input": "0x29ce1ec5000000000000000000000000477ba8b9ed539280f38b459c9ce3a83cc754cec8",
        "nonce": "0x2ab",
        "chainId": "0x27d8"
      },
      "additionalContracts": [],
      "isFixedGasLimit": false
    },
    {
      "hash": "0xf046a07d0f22f72c33f71efdfc748b918f65c07346c626559490e89263688bdf",
      "transactionType": "CALL",
      "contractName": "VaultsRegistry",
      "contractAddress": "0x8750594b33516232e751c8b9c350a660cd5f1bb8",
      "function": "addFactory(address)",
      "arguments": [
        "0xd869A947c5f1b3e3562FF5D9a4bBE22B394fDCaa"
      ],
      "transaction": {
        "from": "0xff2b6d2d5c205b99e2e6f607b6afa3127b9957b6",
        "to": "0x8750594b33516232e751c8b9c350a660cd5f1bb8",
        "gas": "0xff4d",
        "value": "0x0",
        "input": "0x29ce1ec5000000000000000000000000d869a947c5f1b3e3562ff5d9a4bbe22b394fdcaa",
        "nonce": "0x2ac",
        "chainId": "0x27d8"
      },
      "additionalContracts": [],
      "isFixedGasLimit": false
    },
    {
      "hash": "0x7c3ab1f87edf033c12f0d8a142b149775d5f88d2ddccecb91c5701ccb1fe679c",
      "transactionType": "CALL",
      "contractName": "VaultsRegistry",
      "contractAddress": "0x8750594b33516232e751c8b9c350a660cd5f1bb8",
      "function": "addFactory(address)",
      "arguments": [
        "0x2bBbF8026171773539F3b2094fef01c90aA82cf0"
      ],
      "transaction": {
        "from": "0xff2b6d2d5c205b99e2e6f607b6afa3127b9957b6",
        "to": "0x8750594b33516232e751c8b9c350a660cd5f1bb8",
        "gas": "0xff4d",
        "value": "0x0",
        "input": "0x29ce1ec50000000000000000000000002bbbf8026171773539f3b2094fef01c90aa82cf0",
        "nonce": "0x2ad",
        "chainId": "0x27d8"
      },
      "additionalContracts": [],
      "isFixedGasLimit": false
    },
    {
      "hash": "0x5e9f629fb802dd8d16b1710bd732e652f81afc827305ebff07c4a2b12c4b6e00",
      "transactionType": "CALL",
      "contractName": "VaultsRegistry",
      "contractAddress": "0x8750594b33516232e751c8b9c350a660cd5f1bb8",
      "function": "addFactory(address)",
      "arguments": [
        "0x983871390F519bd0Af8A8302087c93AD9B62FdCc"
      ],
      "transaction": {
        "from": "0xff2b6d2d5c205b99e2e6f607b6afa3127b9957b6",
        "to": "0x8750594b33516232e751c8b9c350a660cd5f1bb8",
        "gas": "0xff4d",
        "value": "0x0",
        "input": "0x29ce1ec5000000000000000000000000983871390f519bd0af8a8302087c93ad9b62fdcc",
        "nonce": "0x2ae",
        "chainId": "0x27d8"
      },
      "additionalContracts": [],
      "isFixedGasLimit": false
    }
  ],
  "receipts": [
    {
      "status": "0x1",
      "cumulativeGasUsed": "0x3006f",
      "logs": [
        {
          "address": "0x8750594b33516232e751c8b9c350a660cd5f1bb8",
          "topics": [
            "0x29d974dc346d2950b8cb7bab58520d858ea957de04277b5f52e7ebf831227e59",
            "0x0000000000000000000000004858e78c3e94fc56376813be2c2e8625b037024e"
          ],
          "data": "0x",
          "blockHash": "0xb4826b69174541e1c4bea7358ba25648b3d2dc66dc16bd52451de08c09cbbba9",
          "blockNumber": "0xe94fba",
          "transactionHash": "0xd94e4e022ab02b5d86d27ee350321e545d832c126221411b8796ba6bd566ff65",
          "transactionIndex": "0x5",
          "logIndex": "0x5",
          "removed": false
        }
      ],
      "logsBloom": "0x00000000000000000000000000000000000000000000000000001000000000000000000000000000000000000002000000000000000000000000000000000000000000000000000000000000000000000000000000000010000200000000000000000000000000000000000000000000000000000000000000000000000000000000000000000000000000000000000000000000000100000000000000000000000000000000000008000000000000000000000000000000000000000040000000000000000000000000000000000000000000000000010000000000000000000000000000000000000000000000000000000000010000000000000000000000",
      "type": "0x2",
      "transactionHash": "0xd94e4e022ab02b5d86d27ee350321e545d832c126221411b8796ba6bd566ff65",
      "transactionIndex": "0x5",
      "blockHash": "0xb4826b69174541e1c4bea7358ba25648b3d2dc66dc16bd52451de08c09cbbba9",
      "blockNumber": "0xe94fba",
      "gasUsed": "0xb981",
      "effectiveGasPrice": "0x59682f07",
      "from": "0xff2b6d2d5c205b99e2e6f607b6afa3127b9957b6",
      "to": "0x8750594b33516232e751c8b9c350a660cd5f1bb8",
      "contractAddress": null
    },
    {
      "status": "0x1",
      "cumulativeGasUsed": "0x3b9f0",
      "logs": [
        {
          "address": "0x8750594b33516232e751c8b9c350a660cd5f1bb8",
          "topics": [
            "0x29d974dc346d2950b8cb7bab58520d858ea957de04277b5f52e7ebf831227e59",
            "0x000000000000000000000000b441475c0995406602e6e71af4a7718741a73404"
          ],
          "data": "0x",
          "blockHash": "0xb4826b69174541e1c4bea7358ba25648b3d2dc66dc16bd52451de08c09cbbba9",
          "blockNumber": "0xe94fba",
          "transactionHash": "0x1f03a965769b5e24b117c96c21fe8975af8aaeab079f187819fa8211b2074e54",
          "transactionIndex": "0x6",
          "logIndex": "0x6",
          "removed": false
        }
      ],
      "logsBloom": "0x00000000000000000000000000000000000000000000000000000000000000000000000000000000000000000002000000002080000000000000000000000000000000000000000000000000000000000000000000000010000200000000000000000000000000000000000000000000000000000000000000000000000000000000000000000000000000000000000000000000000000000000000000000000000000000000000008000000000000000000000000000000000000000040000000000000000000000000000000000000000000000000010020000000000000000000000000000000000000000000000000000000000000000000000000000000",
      "type": "0x2",
      "transactionHash": "0x1f03a965769b5e24b117c96c21fe8975af8aaeab079f187819fa8211b2074e54",
      "transactionIndex": "0x6",
      "blockHash": "0xb4826b69174541e1c4bea7358ba25648b3d2dc66dc16bd52451de08c09cbbba9",
      "blockNumber": "0xe94fba",
      "gasUsed": "0xb981",
      "effectiveGasPrice": "0x59682f07",
      "from": "0xff2b6d2d5c205b99e2e6f607b6afa3127b9957b6",
      "to": "0x8750594b33516232e751c8b9c350a660cd5f1bb8",
      "contractAddress": null
    },
    {
      "status": "0x1",
      "cumulativeGasUsed": "0x47371",
      "logs": [
        {
          "address": "0x8750594b33516232e751c8b9c350a660cd5f1bb8",
          "topics": [
            "0x29d974dc346d2950b8cb7bab58520d858ea957de04277b5f52e7ebf831227e59",
            "0x0000000000000000000000002fa59fc852b2f5ef58cd1ff2189f7f193cc420f9"
          ],
          "data": "0x",
          "blockHash": "0xb4826b69174541e1c4bea7358ba25648b3d2dc66dc16bd52451de08c09cbbba9",
          "blockNumber": "0xe94fba",
          "transactionHash": "0xa5589fae3cd3ef88d4d670f201eeb752b5539b0f7632abb74a454b824d920683",
          "transactionIndex": "0x7",
          "logIndex": "0x7",
          "removed": false
        }
      ],
      "logsBloom": "0x00000000000000000000000000000000000000000000000000000000000000000000000000000000000000000002000000000000001000000000000000000000000000000000000000000000000000000000000000000010000200000000000000000000000000000000000000000000000000000800000000000000000000000000000000000000000000000000000000000000000002000000000000000000000000000000000008000000000000000000000000000000000000000040000000000000000000000000000000000000000000000000010000000000000000000000000000000000000000000000000000000000000000000000000000000000",
      "type": "0x2",
      "transactionHash": "0xa5589fae3cd3ef88d4d670f201eeb752b5539b0f7632abb74a454b824d920683",
      "transactionIndex": "0x7",
      "blockHash": "0xb4826b69174541e1c4bea7358ba25648b3d2dc66dc16bd52451de08c09cbbba9",
      "blockNumber": "0xe94fba",
      "gasUsed": "0xb981",
      "effectiveGasPrice": "0x59682f07",
      "from": "0xff2b6d2d5c205b99e2e6f607b6afa3127b9957b6",
      "to": "0x8750594b33516232e751c8b9c350a660cd5f1bb8",
      "contractAddress": null
    },
    {
      "status": "0x1",
      "cumulativeGasUsed": "0x52cf2",
      "logs": [
        {
          "address": "0x8750594b33516232e751c8b9c350a660cd5f1bb8",
          "topics": [
            "0x29d974dc346d2950b8cb7bab58520d858ea957de04277b5f52e7ebf831227e59",
            "0x000000000000000000000000591758b8a07f6e37695054c6e278a3b949312e81"
          ],
          "data": "0x",
          "blockHash": "0xb4826b69174541e1c4bea7358ba25648b3d2dc66dc16bd52451de08c09cbbba9",
          "blockNumber": "0xe94fba",
          "transactionHash": "0x2ee848e7adc8b5a04350b4500f886c2f00cfd64a75ebc6e42d7e4a3a683d1342",
          "transactionIndex": "0x8",
          "logIndex": "0x8",
          "removed": false
        }
      ],
      "logsBloom": "0x00000000000000000000000000000000000000000000000000800000000000000000000000000000000000000002000000000000000000000000000000000000000000000000000000000000000000000000000000000010001200000000000000000000000000000000000000000000000000000000000000000000000000000000000000000000000000000000000000000000000000000000000000000000000000000000000008000000000000000000000000000000000000000040000000000000000000000000000000000000000000000000010000000000000000000000000000000000000000000000000000004000000000000000000000000000",
      "type": "0x2",
      "transactionHash": "0x2ee848e7adc8b5a04350b4500f886c2f00cfd64a75ebc6e42d7e4a3a683d1342",
      "transactionIndex": "0x8",
      "blockHash": "0xb4826b69174541e1c4bea7358ba25648b3d2dc66dc16bd52451de08c09cbbba9",
      "blockNumber": "0xe94fba",
      "gasUsed": "0xb981",
      "effectiveGasPrice": "0x59682f07",
      "from": "0xff2b6d2d5c205b99e2e6f607b6afa3127b9957b6",
      "to": "0x8750594b33516232e751c8b9c350a660cd5f1bb8",
      "contractAddress": null
    },
    {
      "status": "0x1",
      "cumulativeGasUsed": "0x5e673",
      "logs": [
        {
          "address": "0x8750594b33516232e751c8b9c350a660cd5f1bb8",
          "topics": [
            "0x29d974dc346d2950b8cb7bab58520d858ea957de04277b5f52e7ebf831227e59",
            "0x00000000000000000000000099a70ef82c75710a03a9c9f051d6e65d42f1bc0f"
          ],
          "data": "0x",
          "blockHash": "0xb4826b69174541e1c4bea7358ba25648b3d2dc66dc16bd52451de08c09cbbba9",
          "blockNumber": "0xe94fba",
          "transactionHash": "0xae41afca9929b41601ba5813a6f7f213d1215f8c8f6eef177938dc29b091b594",
          "transactionIndex": "0x9",
          "logIndex": "0x9",
          "removed": false
        }
      ],
      "logsBloom": "0x00000000000000000000000000000000000000000000000000000000000000000000000000000000000000000002000000000000000000000000000000040000000000020000000000000000000000000000000000000010000200000000000000000000000000000000000000000000000000000000000000000000000000000000000000000000000000000000000000000000000000000000000000000000000000000000000008000000000000000000000000000000100000000040000000000000000000000000000000000000000000000000010000000000000000000000000000000000000000000000000000000000000000000000000000000000",
      "type": "0x2",
      "transactionHash": "0xae41afca9929b41601ba5813a6f7f213d1215f8c8f6eef177938dc29b091b594",
      "transactionIndex": "0x9",
      "blockHash": "0xb4826b69174541e1c4bea7358ba25648b3d2dc66dc16bd52451de08c09cbbba9",
      "blockNumber": "0xe94fba",
      "gasUsed": "0xb981",
      "effectiveGasPrice": "0x59682f07",
      "from": "0xff2b6d2d5c205b99e2e6f607b6afa3127b9957b6",
      "to": "0x8750594b33516232e751c8b9c350a660cd5f1bb8",
      "contractAddress": null
    },
    {
      "status": "0x1",
      "cumulativeGasUsed": "0x69fe8",
      "logs": [
        {
          "address": "0x8750594b33516232e751c8b9c350a660cd5f1bb8",
          "topics": [
            "0x29d974dc346d2950b8cb7bab58520d858ea957de04277b5f52e7ebf831227e59",
            "0x0000000000000000000000005e5c8853ebcc0020f4a577f1670a658b8694e04a"
          ],
          "data": "0x",
          "blockHash": "0xb4826b69174541e1c4bea7358ba25648b3d2dc66dc16bd52451de08c09cbbba9",
          "blockNumber": "0xe94fba",
          "transactionHash": "0xf15878c4f36717fade167ce77d917987d68cd01f8b4a0599d6676d175acb6530",
          "transactionIndex": "0xa",
          "logIndex": "0xa",
          "removed": false
        }
      ],
      "logsBloom": "0x00000000000000000000000000000000000000000000000000000000000000000000000000000000000000000002000000000000000000000000000000000000000000000000000000000000000000000000000000000010000200000000000000000000000000000000000000000000000000000000000000000000000000000000000000000000000000008000000000000000000000000000000010000000000000000000000008000000000000000000000000000000000000000040000000000000000000000000000100000000000000000000010000000000000000000000000000000000000000000000000000000000000000000000000000000000",
      "type": "0x2",
      "transactionHash": "0xf15878c4f36717fade167ce77d917987d68cd01f8b4a0599d6676d175acb6530",
      "transactionIndex": "0xa",
      "blockHash": "0xb4826b69174541e1c4bea7358ba25648b3d2dc66dc16bd52451de08c09cbbba9",
      "blockNumber": "0xe94fba",
      "gasUsed": "0xb975",
      "effectiveGasPrice": "0x59682f07",
      "from": "0xff2b6d2d5c205b99e2e6f607b6afa3127b9957b6",
      "to": "0x8750594b33516232e751c8b9c350a660cd5f1bb8",
      "contractAddress": null
    },
    {
      "status": "0x1",
      "cumulativeGasUsed": "0x75969",
      "logs": [
        {
          "address": "0x8750594b33516232e751c8b9c350a660cd5f1bb8",
          "topics": [
            "0x29d974dc346d2950b8cb7bab58520d858ea957de04277b5f52e7ebf831227e59",
            "0x000000000000000000000000ba4943d68bae3a39a1281fc1c53311ce12200188"
          ],
          "data": "0x",
          "blockHash": "0xb4826b69174541e1c4bea7358ba25648b3d2dc66dc16bd52451de08c09cbbba9",
          "blockNumber": "0xe94fba",
          "transactionHash": "0x89b5ec79ca03492413202daed694d94818ab0e302aa4d4b2dc0c6d2babdd55ab",
          "transactionIndex": "0xb",
          "logIndex": "0xb",
          "removed": false
        }
      ],
      "logsBloom": "0x00000000000000000000000000000000000000000000000000000000000000100000000000000000000000000002000000000000000000000000000000000000000000000000000000000000000100000000000000000010000200000000000000000000000000000000000000000000000000000000000000000000000000000000000000000000000000000000000000000000000000000000000000000000000000000000000008000000000000000000000000000000000000000040000000000000000000000000000000000000000000000000010000000000000000100000000000000000000000000000000000000000000000000000000000000000",
      "type": "0x2",
      "transactionHash": "0x89b5ec79ca03492413202daed694d94818ab0e302aa4d4b2dc0c6d2babdd55ab",
      "transactionIndex": "0xb",
      "blockHash": "0xb4826b69174541e1c4bea7358ba25648b3d2dc66dc16bd52451de08c09cbbba9",
      "blockNumber": "0xe94fba",
      "gasUsed": "0xb981",
      "effectiveGasPrice": "0x59682f07",
      "from": "0xff2b6d2d5c205b99e2e6f607b6afa3127b9957b6",
      "to": "0x8750594b33516232e751c8b9c350a660cd5f1bb8",
      "contractAddress": null
    },
    {
      "status": "0x1",
      "cumulativeGasUsed": "0x8123f",
      "logs": [
        {
          "address": "0x8750594b33516232e751c8b9c350a660cd5f1bb8",
          "topics": [
            "0x6fdc0147105e43e21da80a75b42d0fd464060d5e1a34b0cefbf0b4ccfc2e36a1",
            "0x000000000000000000000000d8aadc6b931b10c993a39bbb17c6beb469b3b1f7"
          ],
          "data": "0x",
          "blockHash": "0xb4826b69174541e1c4bea7358ba25648b3d2dc66dc16bd52451de08c09cbbba9",
          "blockNumber": "0xe94fba",
          "transactionHash": "0x600dc23de112522aa50289cfcf25d2486a8b9785262928894764b56fc41beb04",
          "transactionIndex": "0xc",
          "logIndex": "0xc",
          "removed": false
        }
      ],
      "logsBloom": "0x00000000000000000000000000000000000000000000000000000000000000000000000000000000000000000002000000200000000004000000000000000000000000000000000000000000000000000000000000000010000000000000000000000000000000000000000000000000000000000000000000000000000800000000000000000000000000000000000000000000000000000000000000000000000000000000000000000000000000000000400000000000000000000040000000000000000000000000000000000000000000000000000000000000000040000000000000000000000000000000000000000000000000000000000000100000",
      "type": "0x2",
      "transactionHash": "0x600dc23de112522aa50289cfcf25d2486a8b9785262928894764b56fc41beb04",
      "transactionIndex": "0xc",
      "blockHash": "0xb4826b69174541e1c4bea7358ba25648b3d2dc66dc16bd52451de08c09cbbba9",
      "blockNumber": "0xe94fba",
      "gasUsed": "0xb8d6",
      "effectiveGasPrice": "0x59682f07",
      "from": "0xff2b6d2d5c205b99e2e6f607b6afa3127b9957b6",
      "to": "0x8750594b33516232e751c8b9c350a660cd5f1bb8",
      "contractAddress": null
    },
    {
      "status": "0x1",
      "cumulativeGasUsed": "0x8cb15",
      "logs": [
        {
          "address": "0x8750594b33516232e751c8b9c350a660cd5f1bb8",
          "topics": [
            "0x6fdc0147105e43e21da80a75b42d0fd464060d5e1a34b0cefbf0b4ccfc2e36a1",
            "0x000000000000000000000000f863d3b4fa9d0f10e22a054f288e08fe03cd6bb6"
          ],
          "data": "0x",
          "blockHash": "0xb4826b69174541e1c4bea7358ba25648b3d2dc66dc16bd52451de08c09cbbba9",
          "blockNumber": "0xe94fba",
          "transactionHash": "0xb17b9a00043911897b1ab9ee4ce8c4c5073cbfe396e739838dcf4587e2063318",
          "transactionIndex": "0xd",
          "logIndex": "0xd",
          "removed": false
        }
      ],
      "logsBloom": "0x00000000000000000000000001000000000000000000100000000000000000000000000000000000000000000002000000200000000000000000000000000000000000000000000000000000000000000000000000000010000000000000000000000000000000000000000000000000000000000000000000000000000000000000000000000000000000000000000000000000000000000000000000000000000000000000000000000000000000000000400000000000000000000040000000000000000000000000000000000000000040000000000000000000000040000000000000000000000000000000000000000000000000000000000000000000",
      "type": "0x2",
      "transactionHash": "0xb17b9a00043911897b1ab9ee4ce8c4c5073cbfe396e739838dcf4587e2063318",
      "transactionIndex": "0xd",
      "blockHash": "0xb4826b69174541e1c4bea7358ba25648b3d2dc66dc16bd52451de08c09cbbba9",
      "blockNumber": "0xe94fba",
      "gasUsed": "0xb8d6",
      "effectiveGasPrice": "0x59682f07",
      "from": "0xff2b6d2d5c205b99e2e6f607b6afa3127b9957b6",
      "to": "0x8750594b33516232e751c8b9c350a660cd5f1bb8",
      "contractAddress": null
    },
    {
      "status": "0x1",
      "cumulativeGasUsed": "0x983eb",
      "logs": [
        {
          "address": "0x8750594b33516232e751c8b9c350a660cd5f1bb8",
          "topics": [
            "0x6fdc0147105e43e21da80a75b42d0fd464060d5e1a34b0cefbf0b4ccfc2e36a1",
            "0x000000000000000000000000477ba8b9ed539280f38b459c9ce3a83cc754cec8"
          ],
          "data": "0x",
          "blockHash": "0xb4826b69174541e1c4bea7358ba25648b3d2dc66dc16bd52451de08c09cbbba9",
          "blockNumber": "0xe94fba",
          "transactionHash": "0xe40b702912c69d186330d3f81af8efdb847fae74220b8e42a704bb7a5ad22bcf",
          "transactionIndex": "0xe",
          "logIndex": "0xe",
          "removed": false
        }
      ],
      "logsBloom": "0x00000000000000000000000000000000000000000000000000000000000000000000000000000000000000000002000000202000000000000000000000000000000000000000000000000000000000000000000000000010000000000000000000000000000000000000000000000000000000000000000000000000000000000000000000000000000000000000000000000000000200000000000000000000000000000200000000000000000000000000400000000000000000000040000000000000000000000000000000000000000000000000000000000000000040000000000000000000000000000000000000000000000000000000000000000000",
      "type": "0x2",
      "transactionHash": "0xe40b702912c69d186330d3f81af8efdb847fae74220b8e42a704bb7a5ad22bcf",
      "transactionIndex": "0xe",
      "blockHash": "0xb4826b69174541e1c4bea7358ba25648b3d2dc66dc16bd52451de08c09cbbba9",
      "blockNumber": "0xe94fba",
      "gasUsed": "0xb8d6",
      "effectiveGasPrice": "0x59682f07",
      "from": "0xff2b6d2d5c205b99e2e6f607b6afa3127b9957b6",
      "to": "0x8750594b33516232e751c8b9c350a660cd5f1bb8",
      "contractAddress": null
    },
    {
      "status": "0x1",
      "cumulativeGasUsed": "0xa3cc1",
      "logs": [
        {
          "address": "0x8750594b33516232e751c8b9c350a660cd5f1bb8",
          "topics": [
            "0x6fdc0147105e43e21da80a75b42d0fd464060d5e1a34b0cefbf0b4ccfc2e36a1",
            "0x000000000000000000000000d869a947c5f1b3e3562ff5d9a4bbe22b394fdcaa"
          ],
          "data": "0x",
          "blockHash": "0xb4826b69174541e1c4bea7358ba25648b3d2dc66dc16bd52451de08c09cbbba9",
          "blockNumber": "0xe94fba",
          "transactionHash": "0xf046a07d0f22f72c33f71efdfc748b918f65c07346c626559490e89263688bdf",
          "transactionIndex": "0xf",
          "logIndex": "0xf",
          "removed": false
        }
      ],
      "logsBloom": "0x00000000000000000000000000000000000000000000000000000000000000000000000000000000000004000002000000200000000000000000000000000000000000000000200000000000000000000000000000000010000000000000000000000000000000000000000000000000000000000000000000000000000000000000000000000000000000000000000000000000000000000000000000000000000000000000000000000000000000000000400000000000000000000040000000000000000000000000000000000000000000000000000000000000000040000000000000000000000000000000000200000000000000000000000000000000",
      "type": "0x2",
      "transactionHash": "0xf046a07d0f22f72c33f71efdfc748b918f65c07346c626559490e89263688bdf",
      "transactionIndex": "0xf",
      "blockHash": "0xb4826b69174541e1c4bea7358ba25648b3d2dc66dc16bd52451de08c09cbbba9",
      "blockNumber": "0xe94fba",
      "gasUsed": "0xb8d6",
      "effectiveGasPrice": "0x59682f07",
      "from": "0xff2b6d2d5c205b99e2e6f607b6afa3127b9957b6",
      "to": "0x8750594b33516232e751c8b9c350a660cd5f1bb8",
      "contractAddress": null
    },
    {
      "status": "0x1",
      "cumulativeGasUsed": "0xaf597",
      "logs": [
        {
          "address": "0x8750594b33516232e751c8b9c350a660cd5f1bb8",
          "topics": [
            "0x6fdc0147105e43e21da80a75b42d0fd464060d5e1a34b0cefbf0b4ccfc2e36a1",
            "0x0000000000000000000000002bbbf8026171773539f3b2094fef01c90aa82cf0"
          ],
          "data": "0x",
          "blockHash": "0xb4826b69174541e1c4bea7358ba25648b3d2dc66dc16bd52451de08c09cbbba9",
          "blockNumber": "0xe94fba",
          "transactionHash": "0x7c3ab1f87edf033c12f0d8a142b149775d5f88d2ddccecb91c5701ccb1fe679c",
          "transactionIndex": "0x10",
          "logIndex": "0x10",
          "removed": false
        }
      ],
      "logsBloom": "0x00000000000000000000000000000040000000000000000000000000000000000000000000000000000000000002000000200200000000000000000000000000000000000000000000000000000000000000000000000010000000000000000000000000000000000000000000000000000000000000000000000000000000000000000000000000000000000000000000000000000000000000000000000000000000000000000000000001000000000000400000000000000000000040000000000000000000000000000000000000000000000000000000000000000040000000000000000000000000000000000000000000000000000000000000000000",
      "type": "0x2",
      "transactionHash": "0x7c3ab1f87edf033c12f0d8a142b149775d5f88d2ddccecb91c5701ccb1fe679c",
      "transactionIndex": "0x10",
      "blockHash": "0xb4826b69174541e1c4bea7358ba25648b3d2dc66dc16bd52451de08c09cbbba9",
      "blockNumber": "0xe94fba",
      "gasUsed": "0xb8d6",
      "effectiveGasPrice": "0x59682f07",
      "from": "0xff2b6d2d5c205b99e2e6f607b6afa3127b9957b6",
      "to": "0x8750594b33516232e751c8b9c350a660cd5f1bb8",
      "contractAddress": null
    },
    {
      "status": "0x1",
      "cumulativeGasUsed": "0xbae6d",
      "logs": [
        {
          "address": "0x8750594b33516232e751c8b9c350a660cd5f1bb8",
          "topics": [
            "0x6fdc0147105e43e21da80a75b42d0fd464060d5e1a34b0cefbf0b4ccfc2e36a1",
            "0x000000000000000000000000983871390f519bd0af8a8302087c93ad9b62fdcc"
          ],
          "data": "0x",
          "blockHash": "0xb4826b69174541e1c4bea7358ba25648b3d2dc66dc16bd52451de08c09cbbba9",
          "blockNumber": "0xe94fba",
          "transactionHash": "0x5e9f629fb802dd8d16b1710bd732e652f81afc827305ebff07c4a2b12c4b6e00",
          "transactionIndex": "0x11",
          "logIndex": "0x11",
          "removed": false
        }
      ],
      "logsBloom": "0x00000000000000000000000000000000000000008000000000000000000000000000000000000000000000000002000000200000000000000000000000000000000000000000000000000000000000000080000000000010000000000000000000000000000000000000000000000000000000000000000000000000000000000000000000000000000000000000000000000000000000000000000000000000000000000000000000000000000000000000400000000000000000000040000000000000000000000000000000000000000000020000000000000000000040000000000000000000000000000000000000000000000000000000000000000000",
      "type": "0x2",
      "transactionHash": "0x5e9f629fb802dd8d16b1710bd732e652f81afc827305ebff07c4a2b12c4b6e00",
      "transactionIndex": "0x11",
      "blockHash": "0xb4826b69174541e1c4bea7358ba25648b3d2dc66dc16bd52451de08c09cbbba9",
      "blockNumber": "0xe94fba",
      "gasUsed": "0xb8d6",
      "effectiveGasPrice": "0x59682f07",
      "from": "0xff2b6d2d5c205b99e2e6f607b6afa3127b9957b6",
      "to": "0x8750594b33516232e751c8b9c350a660cd5f1bb8",
      "contractAddress": null
    }
  ],
  "libraries": [],
  "pending": [],
  "returns": {},
  "timestamp": 1744723396,
  "chain": 10200,
  "commit": "ef3079d"
}